:020000040000FA
:060000000A128A11D32F41
:1009F0000A128A1113250A128A11831603139114FD
:100A000008000A128A1113250A128A118316031389
:100A1000111408000A128A1113250A128A1183166A
:100A2000031311150800831603131419182D192D1B
:100A3000132D11081F39031D1E2D1F2D132D080006
:100A40008316031391160A128A1113250A128A11AA
:100A5000831603131116111608007E088A007F08FA
:100A600082000A128A112D250A128A118000840A36
:100A700004087D0603190034FF0A0319FE0A312D0C
:100A800000340034003403340034003401340034C2
:100A900003340034003400340034003400340034B3
:100AA0000034003400340034F0000A128A11132597
:100AB0000A128A1170088312031393008C1D612D92
:100AC000622D5E2D8C11003083160313111B013033
:100AD0000800F0000A128A1113250A128A11700800
:100AE0008312031393008C1D762D772D732D8C119B
:100AF000003083160313111B013008000A128A11FB
:100B000013250A128A1183160313911583128C1D63
:100B10008A2D8B2D862D8C110A128A1113250A120B
:100B20008A1183120313130808000A128A1101257F
:100B30000A128A11A02D0A128A11F8240A128A11A7
:100B4000A0300A128A1169250A128A11003A031D7F
:100B5000AA2DAB2D9B2D71080A128A1154250A1259
:100B60008A1173080A128A1154250A128A110A126C
:100B70008A110A250A128A11080003340134033449
:100B800000340334023401340234003400340034BD
:100B900000340034003400340034003400340034B5
:100BA00000340034A0348634013400340834003476
:100BB000003400340034003402340334003401348F
:100BC00002340234043400340134023432300A1264
:100BD0008A11B6260A128A113F30F1000030F20065
:100BE0002230FF007F08F3000A128A1195250A12AD
:100BF0008A110D3083120313DD00FB30DC00DC0BA7
:100C0000FF2DDD0BFF2D8316031388013F30F1000C
:100C10000030F2000A128A1115260A128A11831274
:100C2000031388000A128A1100280A128A1101256A
:100C30000A128A11202E0A128A11F8240A128A1125
:100C4000A0300A128A1154250A128A11003A031D93
:100C50002A2E2B2E1B2E71080A128A1154250A12D5
:100C60008A110A128A11F8240A128A11A1300A1272
:100C70008A1154250A128A110A128A117E250A1233
:100C80008A11FF007F08F3000A128A1120250A1238
:100C90008A110A128A110A250A128A117308080099
:100CA0000030FC000030FB000030FA000030F9009A
:100CB000730872047104700403195F2E602EAD2E48
:100CC000FD01FD0A702E0130F8000310F00DF10D4A
:100CD000F20DF30DF80B652E0130FF007F08FD07C4
:100CE000F31F732E742E632E0130F8000310F90DDC
:100CF000FA0DFB0DFC0DF80B762E73087702031D21
:100D00008B2E72087602031D8B2E71087502031D4F
:100D10008B2E70087402031C8E2E8F2E9E2E700850
:100D2000F4027108031C710FF5027208031C720FA4
:100D3000F6027308031C730FF702791401300310D5
:100D4000F30CF20CF10CF00CFF3E031D9F2E013052
:100D5000FD02031DAC2EAD2E742E7C08F3007B0823
:100D6000F2007A08F1007908F000080083120313FA
:100D7000DB005B08840083130008031DC02EC12E16
:100D8000DA2E5B0A84000008D700840A0008D80025
:100D900057085804031DCD2ECE2EDA2E3F300A12EE
:100DA0008A111E270A128A1144300A128A111E273C
:100DB0000A128A11831203135B08073E840083130F
:100DC00000080F39FF007F0894049416831603135C
:100DD0009101831203135B08033E84000008D700CF
:100DE000840A0008D800840A0008D900840A000890
:100DF000DA0002300310D70DD80DD90DDA0DFF3E01
:100E0000031DFA2E5A08F3005908F2005808F100A1
:100E10005708F0000030F7003D30F6000930F500CB
:100E20000030F4000A128A1150260A128A11700842
:100E3000FF3E83160313930094010800F600760822
:100E4000840083130008F000F1017008853EF20071
:100E500071080318013E003EF30076088400000884
:100E6000F000F1017008053EF40071080318013E1E
:100E7000003EF5007608023E84000003031D412F6A
:100E8000422F932F0130F000760A8400000A4A2F87
:100E90000310F00DFF3E031D482F7008FF3AFF00BE
:100EA000720884008317731C83137F0880057608FB
:100EB000033E840083130003031D5F2F602F752FF3
:100EC0000130F000760A8400000A682F0310F00D4C
:100ED000FF3E031D662F7008FF007408840083170F
:100EE000751C83137F088004CA2F7608033E840094
:100EF0000008031D7C2F7D2FCA2F0130F000760AD9
:100F00008400000A852F0310F00DFF3E031D832F80
:100F10007008FF3AFF00740884008317751C831360
:100F20007F088005CA2F7608023E84000008031D52
:100F30009A2F9B2FCA2F0130F000760A8400000AF6
:100F4000A32F0310F00DFF3E031DA12F7008FF001B
:100F5000720884008317731C83137F08800476084B
:100F6000043E840083130008031DB72FB82FBF2F42
:100F70007F30FF007F08831603138105CA2F760890
:100F8000043E84000003031DC62FC72FCA2F8316FB
:100F9000031381177608840083130008493E8400F8
:100FA0008001800A08008313B430FD000530FE0084
:100FB0004030FF00A03084000A128A1131250A1245
:100FC0008A114930FD000530FE00BD30FF002030A1
:100FD00084000A128A1131250A128A11C901CA0134
:100FE000CB01CC01CD01CE01CF01D001D101D20185
:100FF000D301D401D501D60183010A128A11E62D4D
:02400E007A3FF7
:00000001FF
